:0420000071EF3EF04E
:107CC200000E976E000E906E000E916E1200B2ECD6
:107CD2003EF085EC3EF061EC3EF07AEC3EF01200B4
:107CE200096A086A076A066A000EF86E0001D2EF96
:107CF2003EF0000EC16EBE0EC06E000EC36E000ED0
:107D0200C46E010EC26E1200700ED36E000ED26EE1
:107D1200800E9B6E000EB56ED2AE92EF3EF094EFE7
:107D22003EF08DEF3EF01200056E05C003F00346F3
:107D32000346C2500318830B0318C26EC280C2826C
:107D4200C2B2A6EF3EF0A8EF3EF0A1EF3EF0C45063
:107D5200046E036AC3500324016E000E0420026EF7
:107D62001200000E8D6E000E8C6E000E896E000EDB
:107D72008A6E000E8B6E070E966E9268000E936EE0
:107D8200C70E946E95680F015E69C40E5D6F000E9A
:107D92005C6F070E5F6F2F0E5B6F000E856EF18EAC
:107DA200120068EC3EF0000E95EC3EF001C006F0C9
:107DB20002C007F007BEE9EF3EF0075007E1710E7F
:107DC200065CD8B0E7EF3EF0E9EF3EF0EDEF3EF0B3
:107DD200000E8A6ED4EF3EF007BEFBEF3EF0075076
:107DE20007E1E10E065CD8B0F9EF3EF0FBEF3EF0A2
:107DF200FFEF3EF0010E8A6ED4EF3EF007BE0DEFAC
:107E02003FF0510E065C010E0758D8B00BEF3FF061
:107E12000DEF3FF011EF3FF0030E8A6ED4EF3EF00C
:107E220007BE1FEF3FF0C10E065C010E0758D8B027
:107E32001DEF3FF01FEF3FF023EF3FF0070E8A6E7A
:107E4200D4EF3EF007BE31EF3FF0310E065C020E7A
:107E52000758D8B02FEF3FF031EF3FF035EF3FF04A
:107E62000F0E8A6ED4EF3EF007BE43EF3FF0A10E35
:107E7200065C020E0758D8B041EF3FF043EF3FF0E7
:107E820047EF3FF01F0E8A6ED4EF3EF007BE55EF6C
:107E92003FF0110E065C030E0758D8B053EF3FF0C7
:107EA20055EF3FF059EF3FF03F0E8A6ED4EF3EF0B0
:107EB20007BE67EF3FF0B70E065C030E0758D8B057
:107EC20065EF3FF067EF3FF06BEF3FF07F0E8A6E9A
:107ED200D4EF3EF007BE79EF3FF0E90E065C030EE9
:107EE2000758D8B077EF3FF079EF3FF07CEF3FF0E3
:0E7EF2008A68D4EF3EF0D4EF3EF000EF10F0BF
:020000040020DA
:08000000FFFFFFFFFFFFFFFF00
:020000040030CA
:0E00000003285F3CFFD381FF0FC00FE00F40CD
:00000001FF
