:020000040000FA
:10200000C2EF3EF0FFFFFFFFFFFFFFFFFFFFFFFFFD
:10201000FFFFFFFFFFFFFFFFFFFFFFFFFFFFFFFFD0
:107D8000FFFFFFFF0001ECEF3EF0C30EC216C28002
:107D9000BE0EC06E1200C150F00B0E09C16E000E77
:107DA000896E000E8A6E000E936E1200C282C2B2FD
:107DB000DCEF3EF0DEEF3EF0D7EF3EF0C450046E55
:107DC000036AC3500324056E000E0420066E05C02E
:107DD00001F006C002F01200CBEC3EF0C5EC3EF024
:107DE000D6EC3EF001C007F002C008F0085007E1F1
:107DF000710E075CD8B0FFEF3EF001EF3FF005EFEA
:107E00003FF0000E8A6EF0EF3EF0085007E1E10E01
:107E1000075CD8B00EEF3FF010EF3FF014EF3FF0EB
:107E2000010E8A6EF0EF3EF0510E075C010E08580D
:107E3000D8B01DEF3FF01FEF3FF023EF3FF0030EF0
:107E40008A6EF0EF3EF0C10E075C010E0858D8B004
:107E50002CEF3FF02EEF3FF032EF3FF0070E8A6E2F
:107E6000F0EF3EF0310E075C020E0858D8B03BEF41
:107E70003FF03DEF3FF041EF3FF00F0E8A6EF0EF25
:107E80003EF0A10E075C020E0858D8B04AEF3FF052
:107E90004CEF3FF050EF3FF01F0E8A6EF0EF3EF0D8
:107EA000110E075C030E0858D8B059EF3FF05BEF96
:107EB0003FF05FEF3FF03F0E8A6EF0EF3EF0B70EFF
:107EC000075C030E0858D8B068EF3FF06AEF3FF048
:107ED0006EEF3FF07F0E8A6EF0EF3EF0E90E075C2A
:107EE000030E0858D8B077EF3FF079EF3FF07CEF02
:107EF0003FF08A68F0EF3EF0F0EF3EF000EF10F058
:020000040030CA
:08000000000E181EFF8181FFB4
:020000040020DA
:080000000B0D020900000000D5
:00000001FF
